{
  "contractName": "EmrinRemixTest4",
  "abi": [
    {
      "inputs": [],
      "stateMutability": "nonpayable",
      "type": "constructor"
    },
    {
      "anonymous": false,
      "inputs": [
        {
          "indexed": true,
          "internalType": "address",
          "name": "owner",
          "type": "address"
        },
        {
          "indexed": true,
          "internalType": "address",
          "name": "approved",
          "type": "address"
        },
        {
          "indexed": true,
          "internalType": "uint256",
          "name": "tokenId",
          "type": "uint256"
        }
      ],
      "name": "Approval",
      "type": "event"
    },
    {
      "anonymous": false,
      "inputs": [
        {
          "indexed": true,
          "internalType": "address",
          "name": "owner",
          "type": "address"
        },
        {
          "indexed": true,
          "internalType": "address",
          "name": "operator",
          "type": "address"
        },
        {
          "indexed": false,
          "internalType": "bool",
          "name": "approved",
          "type": "bool"
        }
      ],
      "name": "ApprovalForAll",
      "type": "event"
    },
    {
      "anonymous": false,
      "inputs": [
        {
          "indexed": true,
          "internalType": "address",
          "name": "previousOwner",
          "type": "address"
        },
        {
          "indexed": true,
          "internalType": "address",
          "name": "newOwner",
          "type": "address"
        }
      ],
      "name": "OwnershipTransferred",
      "type": "event"
    },
    {
      "anonymous": false,
      "inputs": [
        {
          "indexed": true,
          "internalType": "address",
          "name": "from",
          "type": "address"
        },
        {
          "indexed": true,
          "internalType": "address",
          "name": "to",
          "type": "address"
        },
        {
          "indexed": true,
          "internalType": "uint256",
          "name": "tokenId",
          "type": "uint256"
        }
      ],
      "name": "Transfer",
      "type": "event"
    },
    {
      "anonymous": false,
      "inputs": [
        {
          "indexed": false,
          "internalType": "string",
          "name": "message",
          "type": "string"
        },
        {
          "indexed": false,
          "internalType": "uint256",
          "name": "tokenId",
          "type": "uint256"
        }
      ],
      "name": "Withdrawn",
      "type": "event"
    },
    {
      "inputs": [
        {
          "internalType": "address",
          "name": "to",
          "type": "address"
        },
        {
          "internalType": "uint256",
          "name": "tokenId",
          "type": "uint256"
        }
      ],
      "name": "approve",
      "outputs": [],
      "stateMutability": "nonpayable",
      "type": "function"
    },
    {
      "inputs": [
        {
          "internalType": "address",
          "name": "owner",
          "type": "address"
        }
      ],
      "name": "balanceOf",
      "outputs": [
        {
          "internalType": "uint256",
          "name": "",
          "type": "uint256"
        }
      ],
      "stateMutability": "view",
      "type": "function",
      "constant": true
    },
    {
      "inputs": [
        {
          "internalType": "uint256",
          "name": "tokenId",
          "type": "uint256"
        }
      ],
      "name": "getApproved",
      "outputs": [
        {
          "internalType": "address",
          "name": "",
          "type": "address"
        }
      ],
      "stateMutability": "view",
      "type": "function",
      "constant": true
    },
    {
      "inputs": [],
      "name": "initialDeposit",
      "outputs": [
        {
          "internalType": "uint256",
          "name": "",
          "type": "uint256"
        }
      ],
      "stateMutability": "view",
      "type": "function",
      "constant": true
    },
    {
      "inputs": [
        {
          "internalType": "address",
          "name": "owner",
          "type": "address"
        },
        {
          "internalType": "address",
          "name": "operator",
          "type": "address"
        }
      ],
      "name": "isApprovedForAll",
      "outputs": [
        {
          "internalType": "bool",
          "name": "",
          "type": "bool"
        }
      ],
      "stateMutability": "view",
      "type": "function",
      "constant": true
    },
    {
      "inputs": [],
      "name": "name",
      "outputs": [
        {
          "internalType": "string",
          "name": "",
          "type": "string"
        }
      ],
      "stateMutability": "view",
      "type": "function",
      "constant": true
    },
    {
      "inputs": [],
      "name": "owner",
      "outputs": [
        {
          "internalType": "address",
          "name": "",
          "type": "address"
        }
      ],
      "stateMutability": "view",
      "type": "function",
      "constant": true
    },
    {
      "inputs": [
        {
          "internalType": "uint256",
          "name": "tokenId",
          "type": "uint256"
        }
      ],
      "name": "ownerOf",
      "outputs": [
        {
          "internalType": "address",
          "name": "",
          "type": "address"
        }
      ],
      "stateMutability": "view",
      "type": "function",
      "constant": true
    },
    {
      "inputs": [],
      "name": "renounceOwnership",
      "outputs": [],
      "stateMutability": "nonpayable",
      "type": "function"
    },
    {
      "inputs": [
        {
          "internalType": "address",
          "name": "from",
          "type": "address"
        },
        {
          "internalType": "address",
          "name": "to",
          "type": "address"
        },
        {
          "internalType": "uint256",
          "name": "tokenId",
          "type": "uint256"
        }
      ],
      "name": "safeTransferFrom",
      "outputs": [],
      "stateMutability": "nonpayable",
      "type": "function"
    },
    {
      "inputs": [
        {
          "internalType": "address",
          "name": "from",
          "type": "address"
        },
        {
          "internalType": "address",
          "name": "to",
          "type": "address"
        },
        {
          "internalType": "uint256",
          "name": "tokenId",
          "type": "uint256"
        },
        {
          "internalType": "bytes",
          "name": "data",
          "type": "bytes"
        }
      ],
      "name": "safeTransferFrom",
      "outputs": [],
      "stateMutability": "nonpayable",
      "type": "function"
    },
    {
      "inputs": [
        {
          "internalType": "address",
          "name": "operator",
          "type": "address"
        },
        {
          "internalType": "bool",
          "name": "approved",
          "type": "bool"
        }
      ],
      "name": "setApprovalForAll",
      "outputs": [],
      "stateMutability": "nonpayable",
      "type": "function"
    },
    {
      "inputs": [
        {
          "internalType": "bytes4",
          "name": "interfaceId",
          "type": "bytes4"
        }
      ],
      "name": "supportsInterface",
      "outputs": [
        {
          "internalType": "bool",
          "name": "",
          "type": "bool"
        }
      ],
      "stateMutability": "view",
      "type": "function",
      "constant": true
    },
    {
      "inputs": [],
      "name": "symbol",
      "outputs": [
        {
          "internalType": "string",
          "name": "",
          "type": "string"
        }
      ],
      "stateMutability": "view",
      "type": "function",
      "constant": true
    },
    {
      "inputs": [
        {
          "internalType": "address",
          "name": "from",
          "type": "address"
        },
        {
          "internalType": "address",
          "name": "to",
          "type": "address"
        },
        {
          "internalType": "uint256",
          "name": "tokenId",
          "type": "uint256"
        }
      ],
      "name": "transferFrom",
      "outputs": [],
      "stateMutability": "nonpayable",
      "type": "function"
    },
    {
      "inputs": [
        {
          "internalType": "address",
          "name": "newOwner",
          "type": "address"
        }
      ],
      "name": "transferOwnership",
      "outputs": [],
      "stateMutability": "nonpayable",
      "type": "function"
    },
    {
      "inputs": [
        {
          "internalType": "uint256",
          "name": "_initial",
          "type": "uint256"
        }
      ],
      "name": "setInitialDeposit",
      "outputs": [],
      "stateMutability": "nonpayable",
      "type": "function"
    },
    {
      "inputs": [
        {
          "internalType": "uint256",
          "name": "_readyTime",
          "type": "uint256"
        }
      ],
      "name": "formingDiamondHands",
      "outputs": [],
      "stateMutability": "payable",
      "type": "function",
      "payable": true
    },
    {
      "inputs": [
        {
          "internalType": "uint256",
          "name": "_tokenId",
          "type": "uint256"
        }
      ],
      "name": "deposit",
      "outputs": [],
      "stateMutability": "payable",
      "type": "function",
      "payable": true
    },
    {
      "inputs": [
        {
          "internalType": "uint256",
          "name": "_tokenId",
          "type": "uint256"
        }
      ],
      "name": "withdraw",
      "outputs": [],
      "stateMutability": "nonpayable",
      "type": "function"
    },
    {
      "inputs": [
        {
          "internalType": "uint256",
          "name": "_tokenId",
          "type": "uint256"
        }
      ],
      "name": "getAccountBalance",
      "outputs": [
        {
          "internalType": "uint256",
          "name": "",
          "type": "uint256"
        }
      ],
      "stateMutability": "view",
      "type": "function",
      "constant": true
    },
    {
      "inputs": [
        {
          "internalType": "uint256",
          "name": "_tokenId",
          "type": "uint256"
        }
      ],
      "name": "getReadyTime",
      "outputs": [
        {
          "internalType": "uint256",
          "name": "",
          "type": "uint256"
        }
      ],
      "stateMutability": "view",
      "type": "function",
      "constant": true
    },
    {
      "inputs": [
        {
          "internalType": "string",
          "name": "baseURI",
          "type": "string"
        }
      ],
      "name": "setBaseURI",
      "outputs": [],
      "stateMutability": "nonpayable",
      "type": "function"
    },
    {
      "inputs": [
        {
          "internalType": "uint256",
          "name": "tokenId",
          "type": "uint256"
        }
      ],
      "name": "tokenURI",
      "outputs": [
        {
          "internalType": "string",
          "name": "",
          "type": "string"
        }
      ],
      "stateMutability": "view",
      "type": "function",
      "constant": true
    },
    {
      "inputs": [
        {
          "internalType": "address",
          "name": "_owner",
          "type": "address"
        }
      ],
      "name": "getAccountsByOwner",
      "outputs": [
        {
          "internalType": "uint256[]",
          "name": "",
          "type": "uint256[]"
        }
      ],
      "stateMutability": "view",
      "type": "function",
      "constant": true
    },
    {
      "inputs": [],
      "name": "totalSupply",
      "outputs": [
        {
          "internalType": "uint256",
          "name": "",
          "type": "uint256"
        }
      ],
      "stateMutability": "view",
      "type": "function",
      "constant": true
    }
  ],
  "bytecode": "0x60806040526611c37937e080006008553480156200001c57600080fd5b506040518060400160405280600f81526020017f456d72696e52656d6978546573743400000000000000000000000000000000008152506040518060400160405280600381526020017f455434000000000000000000000000000000000000000000000000000000000081525081600090816200009a919062000425565b508060019081620000ac919062000425565b505050620000cf620000c3620000dd60201b60201c565b620000e560201b60201c565b60016007819055506200050c565b600033905090565b6000600660009054906101000a900473ffffffffffffffffffffffffffffffffffffffff16905081600660006101000a81548173ffffffffffffffffffffffffffffffffffffffff021916908373ffffffffffffffffffffffffffffffffffffffff1602179055508173ffffffffffffffffffffffffffffffffffffffff168173ffffffffffffffffffffffffffffffffffffffff167f8be0079c531659141344cd1fd0a4f28419497f9722a3daafe3b4186f6b6457e060405160405180910390a35050565b600081519050919050565b7f4e487b7100000000000000000000000000000000000000000000000000000000600052604160045260246000fd5b7f4e487b7100000000000000000000000000000000000000000000000000000000600052602260045260246000fd5b600060028204905060018216806200022d57607f821691505b602082108103620002435762000242620001e5565b5b50919050565b60008190508160005260206000209050919050565b60006020601f8301049050919050565b600082821b905092915050565b600060088302620002ad7fffffffffffffffffffffffffffffffffffffffffffffffffffffffffffffffff826200026e565b620002b986836200026e565b95508019841693508086168417925050509392505050565b6000819050919050565b6000819050919050565b60006200030662000300620002fa84620002d1565b620002db565b620002d1565b9050919050565b6000819050919050565b6200032283620002e5565b6200033a62000331826200030d565b8484546200027b565b825550505050565b600090565b6200035162000342565b6200035e81848462000317565b505050565b5b8181101562000386576200037a60008262000347565b60018101905062000364565b5050565b601f821115620003d5576200039f8162000249565b620003aa846200025e565b81016020851015620003ba578190505b620003d2620003c9856200025e565b83018262000363565b50505b505050565b600082821c905092915050565b6000620003fa60001984600802620003da565b1980831691505092915050565b6000620004158383620003e7565b9150826002028217905092915050565b6200043082620001ab565b67ffffffffffffffff8111156200044c576200044b620001b6565b5b62000458825462000214565b620004658282856200038a565b600060209050601f8311600181146200049d576000841562000488578287015190505b62000494858262000407565b86555062000504565b601f198416620004ad8662000249565b60005b82811015620004d757848901518255600182019150602085019450602081019050620004b0565b86831015620004f75784890151620004f3601f891682620003e7565b8355505b6001600288020188555050505b505050505050565b613a73806200051c6000396000f3fe6080604052600436106101815760003560e01c806370a08231116100d1578063a22cb4651161008a578063c87b56dd11610064578063c87b56dd14610574578063e037f889146105b1578063e985e9c5146105dc578063f2fde38b1461061957610181565b8063a22cb46514610506578063b6b55f251461052f578063b88d4fde1461054b57610181565b806370a08231146103f6578063715018a6146104335780638da5cb5b1461044a57806393eb6f191461047557806395d89b41146104b257806399649d06146104dd57610181565b806323b872dd1161013e57806342842e0e1161011857806342842e0e1461032a57806355f804b3146103535780635ea673961461037c5780636352211e146103b957610181565b806323b872dd1461029b5780632e1a7d4d146102c45780633d9546ee146102ed57610181565b806301ffc9a71461018657806306fdde03146101c3578063081812fc146101ee578063095ea7b31461022b57806318160ddd1461025457806322177a6a1461027f575b600080fd5b34801561019257600080fd5b506101ad60048036038101906101a891906122a1565b610642565b6040516101ba91906122e9565b60405180910390f35b3480156101cf57600080fd5b506101d8610724565b6040516101e59190612394565b60405180910390f35b3480156101fa57600080fd5b50610215600480360381019061021091906123ec565b6107b6565b604051610222919061245a565b60405180910390f35b34801561023757600080fd5b50610252600480360381019061024d91906124a1565b6107fc565b005b34801561026057600080fd5b50610269610913565b60405161027691906124f0565b60405180910390f35b610299600480360381019061029491906123ec565b610920565b005b3480156102a757600080fd5b506102c260048036038101906102bd919061250b565b610a2b565b005b3480156102d057600080fd5b506102eb60048036038101906102e691906123ec565b610a8b565b005b3480156102f957600080fd5b50610314600480360381019061030f91906123ec565b610d14565b60405161032191906124f0565b60405180910390f35b34801561033657600080fd5b50610351600480360381019061034c919061250b565b610d8b565b005b34801561035f57600080fd5b5061037a600480360381019061037591906125c3565b610dab565b005b34801561038857600080fd5b506103a3600480360381019061039e91906123ec565b610dc9565b6040516103b091906124f0565b60405180910390f35b3480156103c557600080fd5b506103e060048036038101906103db91906123ec565b610e40565b6040516103ed919061245a565b60405180910390f35b34801561040257600080fd5b5061041d60048036038101906104189190612610565b610ef1565b60405161042a91906124f0565b60405180910390f35b34801561043f57600080fd5b50610448610fa8565b005b34801561045657600080fd5b5061045f610fbc565b60405161046c919061245a565b60405180910390f35b34801561048157600080fd5b5061049c60048036038101906104979190612610565b610fe6565b6040516104a991906126fb565b60405180910390f35b3480156104be57600080fd5b506104c76110dc565b6040516104d49190612394565b60405180910390f35b3480156104e957600080fd5b5061050460048036038101906104ff91906123ec565b61116e565b005b34801561051257600080fd5b5061052d60048036038101906105289190612749565b611180565b005b610549600480360381019061054491906123ec565b611196565b005b34801561055757600080fd5b50610572600480360381019061056d91906128b9565b61121d565b005b34801561058057600080fd5b5061059b600480360381019061059691906123ec565b61127f565b6040516105a89190612394565b60405180910390f35b3480156105bd57600080fd5b506105c6611326565b6040516105d391906124f0565b60405180910390f35b3480156105e857600080fd5b5061060360048036038101906105fe919061293c565b61132c565b60405161061091906122e9565b60405180910390f35b34801561062557600080fd5b50610640600480360381019061063b9190612610565b6113c0565b005b60007f80ac58cd000000000000000000000000000000000000000000000000000000007bffffffffffffffffffffffffffffffffffffffffffffffffffffffff1916827bffffffffffffffffffffffffffffffffffffffffffffffffffffffff1916148061070d57507f5b5e139f000000000000000000000000000000000000000000000000000000007bffffffffffffffffffffffffffffffffffffffffffffffffffffffff1916827bffffffffffffffffffffffffffffffffffffffffffffffffffffffff1916145b8061071d575061071c82611443565b5b9050919050565b606060008054610733906129ab565b80601f016020809104026020016040519081016040528092919081815260200182805461075f906129ab565b80156107ac5780601f10610781576101008083540402835291602001916107ac565b820191906000526020600020905b81548152906001019060200180831161078f57829003601f168201915b5050505050905090565b60006107c1826114ad565b6004600083815260200190815260200160002060009054906101000a900473ffffffffffffffffffffffffffffffffffffffff169050919050565b600061080782610e40565b90508073ffffffffffffffffffffffffffffffffffffffff168373ffffffffffffffffffffffffffffffffffffffff1603610877576040517f08c379a000000000000000000000000000000000000000000000000000000000815260040161086e90612a4e565b60405180910390fd5b8073ffffffffffffffffffffffffffffffffffffffff166108966114f8565b73ffffffffffffffffffffffffffffffffffffffff1614806108c557506108c4816108bf6114f8565b61132c565b5b610904576040517f08c379a00000000000000000000000000000000000000000000000000000000081526004016108fb90612ae0565b60405180910390fd5b61090e8383611500565b505050565b6000600a80549050905090565b428111610962576040517f08c379a000000000000000000000000000000000000000000000000000000000815260040161095990612b4c565b60405180910390fd5b6008543410156109a7576040517f08c379a000000000000000000000000000000000000000000000000000000000815260040161099e90612bb8565b60405180910390fd5b600a60405180604001604052808381526020013481525090806001815401808255809150506001900390600052602060002090600202016000909190919091506000820151816000015560208201518160010155505060006001600a80549050610a119190612c07565b9050610a1d33826115b9565b610a268161127f565b505050565b610a3c610a366114f8565b826115d7565b610a7b576040517f08c379a0000000000000000000000000000000000000000000000000000000008152600401610a7290612cad565b60405180910390fd5b610a8683838361166c565b505050565b600260075403610ad0576040517f08c379a0000000000000000000000000000000000000000000000000000000008152600401610ac790612d19565b60405180910390fd5b60026007819055506000610ae382610e40565b90503373ffffffffffffffffffffffffffffffffffffffff168173ffffffffffffffffffffffffffffffffffffffff1614610b53576040517f08c379a0000000000000000000000000000000000000000000000000000000008152600401610b4a90612d85565b60405180910390fd5b600a8281548110610b6757610b66612da5565b5b906000526020600020906002020160000154421015610bbb576040517f08c379a0000000000000000000000000000000000000000000000000000000008152600401610bb290612e46565b60405180910390fd5b6000600a8381548110610bd157610bd0612da5565b5b90600052602060002090600202016001015411610c23576040517f08c379a0000000000000000000000000000000000000000000000000000000008152600401610c1a90612eb2565b60405180910390fd5b6000600a8381548110610c3957610c38612da5565b5b90600052602060002090600202016001015490508173ffffffffffffffffffffffffffffffffffffffff166108fc829081150290604051600060405180830381858888f19350505050158015610c93573d6000803e3d6000fd5b5080600a8481548110610ca957610ca8612da5565b5b90600052602060002090600202016001016000828254610cc99190612c07565b925050819055507f62749ff237dcf6c0dbdc9a51757aae856cf998baab12f1059bd536a28e355f3d83604051610cff9190612f1e565b60405180910390a15050600160078190555050565b6000610d1f826118d2565b610d5e576040517f08c379a0000000000000000000000000000000000000000000000000000000008152600401610d5590612fbe565b60405180910390fd5b600a8281548110610d7257610d71612da5565b5b9060005260206000209060020201600101549050919050565b610da68383836040518060200160405280600081525061121d565b505050565b610db36118e3565b818160099182610dc4929190613195565b505050565b6000610dd4826118d2565b610e13576040517f08c379a0000000000000000000000000000000000000000000000000000000008152600401610e0a90612fbe565b60405180910390fd5b600a8281548110610e2757610e26612da5565b5b9060005260206000209060020201600001549050919050565b6000806002600084815260200190815260200160002060009054906101000a900473ffffffffffffffffffffffffffffffffffffffff169050600073ffffffffffffffffffffffffffffffffffffffff168173ffffffffffffffffffffffffffffffffffffffff1603610ee8576040517f08c379a0000000000000000000000000000000000000000000000000000000008152600401610edf906132b1565b60405180910390fd5b80915050919050565b60008073ffffffffffffffffffffffffffffffffffffffff168273ffffffffffffffffffffffffffffffffffffffff1603610f61576040517f08c379a0000000000000000000000000000000000000000000000000000000008152600401610f5890613343565b60405180910390fd5b600360008373ffffffffffffffffffffffffffffffffffffffff1673ffffffffffffffffffffffffffffffffffffffff168152602001908152602001600020549050919050565b610fb06118e3565b610fba6000611961565b565b6000600660009054906101000a900473ffffffffffffffffffffffffffffffffffffffff16905090565b60606000610ff383610ef1565b905060008167ffffffffffffffff8111156110115761101061278e565b5b60405190808252806020026020018201604052801561103f5781602001602082028036833780820191505090505b5090506000805b600a805490508110156110d0578573ffffffffffffffffffffffffffffffffffffffff1661107382610e40565b73ffffffffffffffffffffffffffffffffffffffff16036110bd57808383815181106110a2576110a1612da5565b5b60200260200101818152505081806110b990613363565b9250505b80806110c890613363565b915050611046565b50819350505050919050565b6060600180546110eb906129ab565b80601f0160208091040260200160405190810160405280929190818152602001828054611117906129ab565b80156111645780601f1061113957610100808354040283529160200191611164565b820191906000526020600020905b81548152906001019060200180831161114757829003601f168201915b5050505050905090565b6111766118e3565b8060088190555050565b61119261118b6114f8565b8383611a27565b5050565b61119f816118d2565b6111de576040517f08c379a00000000000000000000000000000000000000000000000000000000081526004016111d590612fbe565b60405180910390fd5b34600a82815481106111f3576111f2612da5565b5b9060005260206000209060020201600101600082825461121391906133ab565b9250508190555050565b61122e6112286114f8565b836115d7565b61126d576040517f08c379a000000000000000000000000000000000000000000000000000000000815260040161126490612cad565b60405180910390fd5b61127984848484611b93565b50505050565b606061128a82611bef565b6112c9576040517f08c379a00000000000000000000000000000000000000000000000000000000081526004016112c090613451565b60405180910390fd5b60006112d3611c5b565b905060008151116112f3576040518060200160405280600081525061131e565b806112fd84611ced565b60405160200161130e9291906134ad565b6040516020818303038152906040525b915050919050565b60085481565b6000600560008473ffffffffffffffffffffffffffffffffffffffff1673ffffffffffffffffffffffffffffffffffffffff16815260200190815260200160002060008373ffffffffffffffffffffffffffffffffffffffff1673ffffffffffffffffffffffffffffffffffffffff16815260200190815260200160002060009054906101000a900460ff16905092915050565b6113c86118e3565b600073ffffffffffffffffffffffffffffffffffffffff168173ffffffffffffffffffffffffffffffffffffffff1603611437576040517f08c379a000000000000000000000000000000000000000000000000000000000815260040161142e90613543565b60405180910390fd5b61144081611961565b50565b60007f01ffc9a7000000000000000000000000000000000000000000000000000000007bffffffffffffffffffffffffffffffffffffffffffffffffffffffff1916827bffffffffffffffffffffffffffffffffffffffffffffffffffffffff1916149050919050565b6114b681611bef565b6114f5576040517f08c379a00000000000000000000000000000000000000000000000000000000081526004016114ec906132b1565b60405180910390fd5b50565b600033905090565b816004600083815260200190815260200160002060006101000a81548173ffffffffffffffffffffffffffffffffffffffff021916908373ffffffffffffffffffffffffffffffffffffffff160217905550808273ffffffffffffffffffffffffffffffffffffffff1661157383610e40565b73ffffffffffffffffffffffffffffffffffffffff167f8c5be1e5ebec7d5bd14f71427d1e84f3dd0314c0f7b2291e5b200ac8c7c3b92560405160405180910390a45050565b6115d3828260405180602001604052806000815250611e4d565b5050565b6000806115e383610e40565b90508073ffffffffffffffffffffffffffffffffffffffff168473ffffffffffffffffffffffffffffffffffffffff1614806116255750611624818561132c565b5b8061166357508373ffffffffffffffffffffffffffffffffffffffff1661164b846107b6565b73ffffffffffffffffffffffffffffffffffffffff16145b91505092915050565b8273ffffffffffffffffffffffffffffffffffffffff1661168c82610e40565b73ffffffffffffffffffffffffffffffffffffffff16146116e2576040517f08c379a00000000000000000000000000000000000000000000000000000000081526004016116d9906135d5565b60405180910390fd5b600073ffffffffffffffffffffffffffffffffffffffff168273ffffffffffffffffffffffffffffffffffffffff1603611751576040517f08c379a000000000000000000000000000000000000000000000000000000000815260040161174890613667565b60405180910390fd5b61175c838383611ea8565b611767600082611500565b6001600360008573ffffffffffffffffffffffffffffffffffffffff1673ffffffffffffffffffffffffffffffffffffffff16815260200190815260200160002060008282546117b79190612c07565b925050819055506001600360008473ffffffffffffffffffffffffffffffffffffffff1673ffffffffffffffffffffffffffffffffffffffff168152602001908152602001600020600082825461180e91906133ab565b92505081905550816002600083815260200190815260200160002060006101000a81548173ffffffffffffffffffffffffffffffffffffffff021916908373ffffffffffffffffffffffffffffffffffffffff160217905550808273ffffffffffffffffffffffffffffffffffffffff168473ffffffffffffffffffffffffffffffffffffffff167fddf252ad1be2c89b69c2b068fc378daa952ba7f163c4a11628f55a4df523b3ef60405160405180910390a46118cd838383611ead565b505050565b6000600a8054905082109050919050565b6118eb6114f8565b73ffffffffffffffffffffffffffffffffffffffff16611909610fbc565b73ffffffffffffffffffffffffffffffffffffffff161461195f576040517f08c379a0000000000000000000000000000000000000000000000000000000008152600401611956906136d3565b60405180910390fd5b565b6000600660009054906101000a900473ffffffffffffffffffffffffffffffffffffffff16905081600660006101000a81548173ffffffffffffffffffffffffffffffffffffffff021916908373ffffffffffffffffffffffffffffffffffffffff1602179055508173ffffffffffffffffffffffffffffffffffffffff168173ffffffffffffffffffffffffffffffffffffffff167f8be0079c531659141344cd1fd0a4f28419497f9722a3daafe3b4186f6b6457e060405160405180910390a35050565b8173ffffffffffffffffffffffffffffffffffffffff168373ffffffffffffffffffffffffffffffffffffffff1603611a95576040517f08c379a0000000000000000000000000000000000000000000000000000000008152600401611a8c9061373f565b60405180910390fd5b80600560008573ffffffffffffffffffffffffffffffffffffffff1673ffffffffffffffffffffffffffffffffffffffff16815260200190815260200160002060008473ffffffffffffffffffffffffffffffffffffffff1673ffffffffffffffffffffffffffffffffffffffff16815260200190815260200160002060006101000a81548160ff0219169083151502179055508173ffffffffffffffffffffffffffffffffffffffff168373ffffffffffffffffffffffffffffffffffffffff167f17307eab39ab6107e8899845ad3d59bd9653f200f220920489ca2b5937696c3183604051611b8691906122e9565b60405180910390a3505050565b611b9e84848461166c565b611baa84848484611eb2565b611be9576040517f08c379a0000000000000000000000000000000000000000000000000000000008152600401611be0906137d1565b60405180910390fd5b50505050565b60008073ffffffffffffffffffffffffffffffffffffffff166002600084815260200190815260200160002060009054906101000a900473ffffffffffffffffffffffffffffffffffffffff1673ffffffffffffffffffffffffffffffffffffffff1614159050919050565b606060098054611c6a906129ab565b80601f0160208091040260200160405190810160405280929190818152602001828054611c96906129ab565b8015611ce35780601f10611cb857610100808354040283529160200191611ce3565b820191906000526020600020905b815481529060010190602001808311611cc657829003601f168201915b5050505050905090565b606060008203611d34576040518060400160405280600181526020017f30000000000000000000000000000000000000000000000000000000000000008152509050611e48565b600082905060005b60008214611d66578080611d4f90613363565b915050600a82611d5f9190613820565b9150611d3c565b60008167ffffffffffffffff811115611d8257611d8161278e565b5b6040519080825280601f01601f191660200182016040528015611db45781602001600182028036833780820191505090505b5090505b60008514611e4157600182611dcd9190612c07565b9150600a85611ddc9190613851565b6030611de891906133ab565b60f81b818381518110611dfe57611dfd612da5565b5b60200101907effffffffffffffffffffffffffffffffffffffffffffffffffffffffffffff1916908160001a905350600a85611e3a9190613820565b9450611db8565b8093505050505b919050565b611e578383612039565b611e646000848484611eb2565b611ea3576040517f08c379a0000000000000000000000000000000000000000000000000000000008152600401611e9a906137d1565b60405180910390fd5b505050565b505050565b505050565b6000611ed38473ffffffffffffffffffffffffffffffffffffffff16612212565b1561202c578373ffffffffffffffffffffffffffffffffffffffff1663150b7a02611efc6114f8565b8786866040518563ffffffff1660e01b8152600401611f1e94939291906138d7565b6020604051808303816000875af1925050508015611f5a57506040513d601f19601f82011682018060405250810190611f579190613938565b60015b611fdc573d8060008114611f8a576040519150601f19603f3d011682016040523d82523d6000602084013e611f8f565b606091505b506000815103611fd4576040517f08c379a0000000000000000000000000000000000000000000000000000000008152600401611fcb906137d1565b60405180910390fd5b805181602001fd5b63150b7a0260e01b7bffffffffffffffffffffffffffffffffffffffffffffffffffffffff1916817bffffffffffffffffffffffffffffffffffffffffffffffffffffffff191614915050612031565b600190505b949350505050565b600073ffffffffffffffffffffffffffffffffffffffff168273ffffffffffffffffffffffffffffffffffffffff16036120a8576040517f08c379a000000000000000000000000000000000000000000000000000000000815260040161209f906139b1565b60405180910390fd5b6120b181611bef565b156120f1576040517f08c379a00000000000000000000000000000000000000000000000000000000081526004016120e890613a1d565b60405180910390fd5b6120fd60008383611ea8565b6001600360008473ffffffffffffffffffffffffffffffffffffffff1673ffffffffffffffffffffffffffffffffffffffff168152602001908152602001600020600082825461214d91906133ab565b92505081905550816002600083815260200190815260200160002060006101000a81548173ffffffffffffffffffffffffffffffffffffffff021916908373ffffffffffffffffffffffffffffffffffffffff160217905550808273ffffffffffffffffffffffffffffffffffffffff16600073ffffffffffffffffffffffffffffffffffffffff167fddf252ad1be2c89b69c2b068fc378daa952ba7f163c4a11628f55a4df523b3ef60405160405180910390a461220e60008383611ead565b5050565b6000808273ffffffffffffffffffffffffffffffffffffffff163b119050919050565b6000604051905090565b600080fd5b600080fd5b60007fffffffff0000000000000000000000000000000000000000000000000000000082169050919050565b61227e81612249565b811461228957600080fd5b50565b60008135905061229b81612275565b92915050565b6000602082840312156122b7576122b661223f565b5b60006122c58482850161228c565b91505092915050565b60008115159050919050565b6122e3816122ce565b82525050565b60006020820190506122fe60008301846122da565b92915050565b600081519050919050565b600082825260208201905092915050565b60005b8381101561233e578082015181840152602081019050612323565b60008484015250505050565b6000601f19601f8301169050919050565b600061236682612304565b612370818561230f565b9350612380818560208601612320565b6123898161234a565b840191505092915050565b600060208201905081810360008301526123ae818461235b565b905092915050565b6000819050919050565b6123c9816123b6565b81146123d457600080fd5b50565b6000813590506123e6816123c0565b92915050565b6000602082840312156124025761240161223f565b5b6000612410848285016123d7565b91505092915050565b600073ffffffffffffffffffffffffffffffffffffffff82169050919050565b600061244482612419565b9050919050565b61245481612439565b82525050565b600060208201905061246f600083018461244b565b92915050565b61247e81612439565b811461248957600080fd5b50565b60008135905061249b81612475565b92915050565b600080604083850312156124b8576124b761223f565b5b60006124c68582860161248c565b92505060206124d7858286016123d7565b9150509250929050565b6124ea816123b6565b82525050565b600060208201905061250560008301846124e1565b92915050565b6000806000606084860312156125245761252361223f565b5b60006125328682870161248c565b93505060206125438682870161248c565b9250506040612554868287016123d7565b9150509250925092565b600080fd5b600080fd5b600080fd5b60008083601f8401126125835761258261255e565b5b8235905067ffffffffffffffff8111156125a05761259f612563565b5b6020830191508360018202830111156125bc576125bb612568565b5b9250929050565b600080602083850312156125da576125d961223f565b5b600083013567ffffffffffffffff8111156125f8576125f7612244565b5b6126048582860161256d565b92509250509250929050565b6000602082840312156126265761262561223f565b5b60006126348482850161248c565b91505092915050565b600081519050919050565b600082825260208201905092915050565b6000819050602082019050919050565b612672816123b6565b82525050565b60006126848383612669565b60208301905092915050565b6000602082019050919050565b60006126a88261263d565b6126b28185612648565b93506126bd83612659565b8060005b838110156126ee5781516126d58882612678565b97506126e083612690565b9250506001810190506126c1565b5085935050505092915050565b60006020820190508181036000830152612715818461269d565b905092915050565b612726816122ce565b811461273157600080fd5b50565b6000813590506127438161271d565b92915050565b600080604083850312156127605761275f61223f565b5b600061276e8582860161248c565b925050602061277f85828601612734565b9150509250929050565b600080fd5b7f4e487b7100000000000000000000000000000000000000000000000000000000600052604160045260246000fd5b6127c68261234a565b810181811067ffffffffffffffff821117156127e5576127e461278e565b5b80604052505050565b60006127f8612235565b905061280482826127bd565b919050565b600067ffffffffffffffff8211156128245761282361278e565b5b61282d8261234a565b9050602081019050919050565b82818337600083830152505050565b600061285c61285784612809565b6127ee565b90508281526020810184848401111561287857612877612789565b5b61288384828561283a565b509392505050565b600082601f8301126128a05761289f61255e565b5b81356128b0848260208601612849565b91505092915050565b600080600080608085870312156128d3576128d261223f565b5b60006128e18782880161248c565b94505060206128f28782880161248c565b9350506040612903878288016123d7565b925050606085013567ffffffffffffffff81111561292457612923612244565b5b6129308782880161288b565b91505092959194509250565b600080604083850312156129535761295261223f565b5b60006129618582860161248c565b92505060206129728582860161248c565b9150509250929050565b7f4e487b7100000000000000000000000000000000000000000000000000000000600052602260045260246000fd5b600060028204905060018216806129c357607f821691505b6020821081036129d6576129d561297c565b5b50919050565b7f4552433732313a20617070726f76616c20746f2063757272656e74206f776e6560008201527f7200000000000000000000000000000000000000000000000000000000000000602082015250565b6000612a3860218361230f565b9150612a43826129dc565b604082019050919050565b60006020820190508181036000830152612a6781612a2b565b9050919050565b7f4552433732313a20617070726f76652063616c6c6572206973206e6f7420746f60008201527f6b656e206f776e6572206e6f7220617070726f76656420666f7220616c6c0000602082015250565b6000612aca603e8361230f565b9150612ad582612a6e565b604082019050919050565b60006020820190508181036000830152612af981612abd565b9050919050565b7f43686f6f73652061206461746520696e20746865206675747572650000000000600082015250565b6000612b36601b8361230f565b9150612b4182612b00565b602082019050919050565b60006020820190508181036000830152612b6581612b29565b9050919050565b7f4f70656e696e67206465706f7369742072657175697265640000000000000000600082015250565b6000612ba260188361230f565b9150612bad82612b6c565b602082019050919050565b60006020820190508181036000830152612bd181612b95565b9050919050565b7f4e487b7100000000000000000000000000000000000000000000000000000000600052601160045260246000fd5b6000612c12826123b6565b9150612c1d836123b6565b9250828203905081811115612c3557612c34612bd8565b5b92915050565b7f4552433732313a2063616c6c6572206973206e6f7420746f6b656e206f776e6560008201527f72206e6f7220617070726f766564000000000000000000000000000000000000602082015250565b6000612c97602e8361230f565b9150612ca282612c3b565b604082019050919050565b60006020820190508181036000830152612cc681612c8a565b9050919050565b7f5265656e7472616e637947756172643a207265656e7472616e742063616c6c00600082015250565b6000612d03601f8361230f565b9150612d0e82612ccd565b602082019050919050565b60006020820190508181036000830152612d3281612cf6565b9050919050565b7f596f7520646f206e6f74206f776e207468697320746f6b656e20000000000000600082015250565b6000612d6f601a8361230f565b9150612d7a82612d39565b602082019050919050565b60006020820190508181036000830152612d9e81612d62565b9050919050565b7f4e487b7100000000000000000000000000000000000000000000000000000000600052603260045260246000fd5b7f457468206973207374696c6c206c6f636b65642e2054727920616761696e206c60008201527f6174657200000000000000000000000000000000000000000000000000000000602082015250565b6000612e3060248361230f565b9150612e3b82612dd4565b604082019050919050565b60006020820190508181036000830152612e5f81612e23565b9050919050565b7f5468657265206973206e6f2045746820696e2068657265000000000000000000600082015250565b6000612e9c60178361230f565b9150612ea782612e66565b602082019050919050565b60006020820190508181036000830152612ecb81612e8f565b9050919050565b7f5769746864726177207375636365737366756c00000000000000000000000000600082015250565b6000612f0860138361230f565b9150612f1382612ed2565b602082019050919050565b60006040820190508181036000830152612f3781612efb565b9050612f4660208301846124e1565b92915050565b7f546f6b656e20646f6573206e6f742065786973742e20436865636b20746f6b6560008201527f6e20696400000000000000000000000000000000000000000000000000000000602082015250565b6000612fa860248361230f565b9150612fb382612f4c565b604082019050919050565b60006020820190508181036000830152612fd781612f9b565b9050919050565b600082905092915050565b60008190508160005260206000209050919050565b60006020601f8301049050919050565b600082821b905092915050565b60006008830261304b7fffffffffffffffffffffffffffffffffffffffffffffffffffffffffffffffff8261300e565b613055868361300e565b95508019841693508086168417925050509392505050565b6000819050919050565b600061309261308d613088846123b6565b61306d565b6123b6565b9050919050565b6000819050919050565b6130ac83613077565b6130c06130b882613099565b84845461301b565b825550505050565b600090565b6130d56130c8565b6130e08184846130a3565b505050565b5b81811015613104576130f96000826130cd565b6001810190506130e6565b5050565b601f8211156131495761311a81612fe9565b61312384612ffe565b81016020851015613132578190505b61314661313e85612ffe565b8301826130e5565b50505b505050565b600082821c905092915050565b600061316c6000198460080261314e565b1980831691505092915050565b6000613185838361315b565b9150826002028217905092915050565b61319f8383612fde565b67ffffffffffffffff8111156131b8576131b761278e565b5b6131c282546129ab565b6131cd828285613108565b6000601f8311600181146131fc57600084156131ea578287013590505b6131f48582613179565b86555061325c565b601f19841661320a86612fe9565b60005b828110156132325784890135825560018201915060208501945060208101905061320d565b8683101561324f578489013561324b601f89168261315b565b8355505b6001600288020188555050505b50505050505050565b7f4552433732313a20696e76616c696420746f6b656e2049440000000000000000600082015250565b600061329b60188361230f565b91506132a682613265565b602082019050919050565b600060208201905081810360008301526132ca8161328e565b9050919050565b7f4552433732313a2061646472657373207a65726f206973206e6f74206120766160008201527f6c6964206f776e65720000000000000000000000000000000000000000000000602082015250565b600061332d60298361230f565b9150613338826132d1565b604082019050919050565b6000602082019050818103600083015261335c81613320565b9050919050565b600061336e826123b6565b91507fffffffffffffffffffffffffffffffffffffffffffffffffffffffffffffffff82036133a05761339f612bd8565b5b600182019050919050565b60006133b6826123b6565b91506133c1836123b6565b92508282019050808211156133d9576133d8612bd8565b5b92915050565b7f4552433732314d657461646174613a2055524920717565727920666f72206e6f60008201527f6e6578697374656e7420746f6b656e0000000000000000000000000000000000602082015250565b600061343b602f8361230f565b9150613446826133df565b604082019050919050565b6000602082019050818103600083015261346a8161342e565b9050919050565b600081905092915050565b600061348782612304565b6134918185613471565b93506134a1818560208601612320565b80840191505092915050565b60006134b9828561347c565b91506134c5828461347c565b91508190509392505050565b7f4f776e61626c653a206e6577206f776e657220697320746865207a65726f206160008201527f6464726573730000000000000000000000000000000000000000000000000000602082015250565b600061352d60268361230f565b9150613538826134d1565b604082019050919050565b6000602082019050818103600083015261355c81613520565b9050919050565b7f4552433732313a207472616e736665722066726f6d20696e636f72726563742060008201527f6f776e6572000000000000000000000000000000000000000000000000000000602082015250565b60006135bf60258361230f565b91506135ca82613563565b604082019050919050565b600060208201905081810360008301526135ee816135b2565b9050919050565b7f4552433732313a207472616e7366657220746f20746865207a65726f2061646460008201527f7265737300000000000000000000000000000000000000000000000000000000602082015250565b600061365160248361230f565b915061365c826135f5565b604082019050919050565b6000602082019050818103600083015261368081613644565b9050919050565b7f4f776e61626c653a2063616c6c6572206973206e6f7420746865206f776e6572600082015250565b60006136bd60208361230f565b91506136c882613687565b602082019050919050565b600060208201905081810360008301526136ec816136b0565b9050919050565b7f4552433732313a20617070726f766520746f2063616c6c657200000000000000600082015250565b600061372960198361230f565b9150613734826136f3565b602082019050919050565b600060208201905081810360008301526137588161371c565b9050919050565b7f4552433732313a207472616e7366657220746f206e6f6e20455243373231526560008201527f63656976657220696d706c656d656e7465720000000000000000000000000000602082015250565b60006137bb60328361230f565b91506137c68261375f565b604082019050919050565b600060208201905081810360008301526137ea816137ae565b9050919050565b7f4e487b7100000000000000000000000000000000000000000000000000000000600052601260045260246000fd5b600061382b826123b6565b9150613836836123b6565b925082613846576138456137f1565b5b828204905092915050565b600061385c826123b6565b9150613867836123b6565b925082613877576138766137f1565b5b828206905092915050565b600081519050919050565b600082825260208201905092915050565b60006138a982613882565b6138b3818561388d565b93506138c3818560208601612320565b6138cc8161234a565b840191505092915050565b60006080820190506138ec600083018761244b565b6138f9602083018661244b565b61390660408301856124e1565b8181036060830152613918818461389e565b905095945050505050565b60008151905061393281612275565b92915050565b60006020828403121561394e5761394d61223f565b5b600061395c84828501613923565b91505092915050565b7f4552433732313a206d696e7420746f20746865207a65726f2061646472657373600082015250565b600061399b60208361230f565b91506139a682613965565b602082019050919050565b600060208201905081810360008301526139ca8161398e565b9050919050565b7f4552433732313a20746f6b656e20616c7265616479206d696e74656400000000600082015250565b6000613a07601c8361230f565b9150613a12826139d1565b602082019050919050565b60006020820190508181036000830152613a36816139fa565b905091905056fea2646970667358221220db389bf4bcc0fb3be6a64e0448a937924cb4b137402e0743af25187b691e563564736f6c63430008110033",
  "immutableReferences": {},
  "source": "// SPDX-License-Identifier: MIT\r\npragma solidity >=0.7.0 <0.9.0;\r\n\r\nimport \"@openzeppelin/contracts/token/ERC721/ERC721.sol\";\r\nimport \"@openzeppelin/contracts/access/Ownable.sol\";\r\nimport \"@openzeppelin/contracts/security/ReentrancyGuard.sol\";\r\nimport \"@openzeppelin/contracts/utils/Strings.sol\";\r\n\r\n///\r\n/// @title \r\n/// @dev \r\n///\r\ncontract EmrinRemixTest4 is ERC721, Ownable, ReentrancyGuard {\r\n\r\n  using Strings for uint256;\r\n  uint public initialDeposit = 0.005 ether;\r\n  string private _baseTokenURI; \r\n\r\n  event Withdrawn(string message, uint tokenId);\r\n\r\n  struct Account {\r\n    uint readyTime;\r\n    uint accountBalances;\r\n  }\r\n\r\n  Account[] private accounts;\r\n\r\n  constructor() ERC721(\"EmrinRemixTest4\",\"ET4\"){}\r\n\r\n  function setInitialDeposit(uint _initial) external onlyOwner {\r\n    initialDeposit = _initial;\r\n  }\r\n\r\n  function formingDiamondHands(uint _readyTime) external payable {\r\n    require(_readyTime > block.timestamp, \"Choose a date in the future\");\r\n    require(msg.value >= initialDeposit, \"Opening deposit required\");\r\n    accounts.push(Account(_readyTime, msg.value));\r\n    uint tokenId = accounts.length - 1;\r\n    _safeMint(msg.sender, tokenId);\r\n    tokenURI(tokenId);\r\n  }\r\n\r\n  function _tokenExists(uint256 tokenId) internal view returns (bool) {\r\n    return tokenId < accounts.length;\r\n  }\r\n\r\n  function deposit(uint _tokenId) external payable {\r\n    require (_tokenExists(_tokenId), \"Token does not exist. Check token id\");\r\n    accounts[_tokenId].accountBalances += msg.value;\r\n  }\r\n\r\n  function withdraw(uint _tokenId) external nonReentrant {\r\n    address theOwner = ownerOf(_tokenId);\r\n    require(theOwner == msg.sender, \"You do not own this token \");\r\n    require(block.timestamp >= accounts[_tokenId].readyTime, \"Eth is still locked. Try again later\");\r\n    require(accounts[_tokenId].accountBalances > 0, \"There is no Eth in here\");\r\n    uint amount = accounts[_tokenId].accountBalances;\r\n    payable(theOwner).transfer(amount);\r\n    accounts[_tokenId].accountBalances -= amount;\r\n    emit Withdrawn(\"Withdraw successful\", _tokenId);\r\n  }\r\n  \r\n  function getAccountBalance(uint _tokenId) external view returns (uint) {\r\n    require (_tokenExists(_tokenId), \"Token does not exist. Check token id\");\r\n    return accounts[_tokenId].accountBalances;\r\n  }\r\n\r\n  function getReadyTime(uint _tokenId) external view returns (uint) {\r\n    require (_tokenExists(_tokenId), \"Token does not exist. Check token id\");\r\n    return accounts[_tokenId].readyTime;\r\n  }\r\n\r\n  // metadata URI\r\n   \r\n  function _baseURI() internal view virtual override returns(string memory) {\r\n    return _baseTokenURI;\r\n  }\r\n  \r\n  function setBaseURI(string calldata baseURI) external onlyOwner {\r\n    _baseTokenURI = baseURI;\r\n  }\r\n\r\n  function tokenURI(uint256 tokenId) public view virtual override returns (string memory) {\r\n    require(_exists(tokenId), \"ERC721Metadata: URI query for nonexistent token\");\r\n    string memory baseURI = _baseURI();\r\n    return bytes(baseURI).length > 0\r\n        ? string(abi.encodePacked(baseURI, tokenId.toString()))\r\n        : \"\";   \r\n  }\r\n\r\n  //List of Accounts by Owner Array\r\n  function getAccountsByOwner(address _owner) external view returns(uint[] memory){\r\n    uint number = balanceOf(_owner);\r\n    uint [] memory result = new uint[](number);\r\n    uint counter = 0;\r\n    for (uint i = 0; i < accounts.length; i++) {\r\n      if(ownerOf(i) == _owner) {\r\n        result[counter] = i;\r\n        counter++;\r\n      }\r\n    }\r\n    return result;\r\n  }\r\n\r\n  function totalSupply() public view returns (uint256) {\r\n    return accounts.length;\r\n  }\r\n}\r\n",
  "sourcePath": "C:\\Users\\emmad\\Documents\\Crypto\\BUIDL\\dApps\\SmartBank\\EmrinBank-dapp\\emrin-bank\\contracts\\EmrinRemixTest4.sol",
  "compiler": {
    "name": "solc",
    "version": "0.8.17+commit.8df45f5f.Emscripten.clang"
  },
  "schemaVersion": "3.4.9",
  "updatedAt": "2022-10-18T03:22:50.844Z",
  "networkType": "ethereum",
  "devdoc": {
    "kind": "dev",
    "methods": {
      "approve(address,uint256)": {
        "details": "See {IERC721-approve}."
      },
      "balanceOf(address)": {
        "details": "See {IERC721-balanceOf}."
      },
      "getApproved(uint256)": {
        "details": "See {IERC721-getApproved}."
      },
      "isApprovedForAll(address,address)": {
        "details": "See {IERC721-isApprovedForAll}."
      },
      "name()": {
        "details": "See {IERC721Metadata-name}."
      },
      "owner()": {
        "details": "Returns the address of the current owner."
      },
      "ownerOf(uint256)": {
        "details": "See {IERC721-ownerOf}."
      },
      "renounceOwnership()": {
        "details": "Leaves the contract without owner. It will not be possible to call `onlyOwner` functions anymore. Can only be called by the current owner. NOTE: Renouncing ownership will leave the contract without an owner, thereby removing any functionality that is only available to the owner."
      },
      "safeTransferFrom(address,address,uint256)": {
        "details": "See {IERC721-safeTransferFrom}."
      },
      "safeTransferFrom(address,address,uint256,bytes)": {
        "details": "See {IERC721-safeTransferFrom}."
      },
      "setApprovalForAll(address,bool)": {
        "details": "See {IERC721-setApprovalForAll}."
      },
      "supportsInterface(bytes4)": {
        "details": "See {IERC165-supportsInterface}."
      },
      "symbol()": {
        "details": "See {IERC721Metadata-symbol}."
      },
      "tokenURI(uint256)": {
        "details": "See {IERC721Metadata-tokenURI}."
      },
      "transferFrom(address,address,uint256)": {
        "details": "See {IERC721-transferFrom}."
      },
      "transferOwnership(address)": {
        "details": "Transfers ownership of the contract to a new account (`newOwner`). Can only be called by the current owner."
      }
    },
    "version": 1
  },
  "userdoc": {
    "kind": "user",
    "methods": {},
    "version": 1
  }
}